:100000000C946B010C94B2010C94CD010C94B201D0
:100010000C94B2010C94B2010C94761A0C94B201B7
:100020000C94B2010C94B2010C94B2010C94B20184
:100030000C94B2010C94B2010C94CD1A0C94B20140
:100040000C94B2010C94B2010C94B2010C94B20164
:100050000C94B2010C94B2010C94B2010C94B20154
:100060000C94B2010C94B20157656C6C536B7957C8
:10007000656C636F6D657335303036310101280072
:10008000717977766F662D6E696D6675732D377031
:100090006566486901012800546F726F6261744C93
:1000A000010128001A0801532A5D170A295D170863
:1000B0001108110AA600061304060706140806050F
:1000C0000A05100A1A0110502B5D171317011101B0
:1000D0002B08060150084F08040619011D011C01D8
:1000E0002A01101300000000000000002A2B280045
:1000F00000000000000000000000000000000029D7
:10010000000000002C1E3420212224342627252E16
:10011000362D3738271E1F2021222324252633334E
:10012000362E37381F0405060708090A0B0C0D0E7A
:100130000F101112131415161718191A1B1C1D2F46
:100140003130232D350405060708090A0B0C0D0E66
:100150000F101112131415161718191A1B1C1D2F26
:100160003130354C000000000000000000000000AD
:10017000000000000000000000000000000000007F
:1001800000000000000000007E0F00D4FFFFFFC74A
:100190000000007809023B00020100A032090400BF
:1001A00000010301010009210101000122400007B3
:1001B0000581030800010904010001030000000992
:1001C0002101010001227B000705830308000112C1
:1001D0000110010000000883795050010001020065
:1001E000011E0350006C006100690064002D005086
:1001F00000610064002000520065007600310000BC
:100200000014034B00650079006300610070007307
:10021000007300730000000403090405010902A132
:100220000185020901A10005091901290815002508
:1002300001950875018102050109300931158125F3
:100240007F95027508810609381581257F9501750E
:10025000088106050C0A38021581257F950175086D
:100260008106C0C005010980A101850319012AB7D3
:1002700000150126B700950175108100C0050C0915
:1002800001A101850419012AA002150126A00295E9
:100290000175108100C005010906A101050719E0DB
:1002A00029E715002501950875018102950175085A
:1002B00081030507190029FF150026FF0095067523
:1002C0000881000508190129059505750191029518
:1002D0000175039103C011241FBECFEFD8E0DEBF2C
:1002E000CDBF04B603FE27C0809112039091130383
:1002F000A0911403B09115038730904BA740B04BE9
:10030000D1F410921203109213031092140310925E
:10031000150314BE84B7877F84BF0FB6F894A895E1
:1003200080916000886180936000109260000FBE31
:10033000E0E0F8E3099511E0A0E0B1E0E6ECFDE3D0
:1003400002C005900D92A439B107D9F723E0A4E9C2
:10035000B1E001C01D92A231B207E1F70E94431B38
:100360000C94C31E0C940000A82FB92F80E090E0DD
:1003700041E050EA609530E009C02D9182279795C1
:10038000879510F084279527305EC8F36F5FA8F338
:100390000895EADF8D939D930895CF93CFB7CF93C0
:1003A000DF93C3954B9BE9F74B9B10C04B9B0EC053
:1003B0004B9B0CC04B9B0AC04B9B08C04B9B06C081
:1003C000C091E902C395C093E9028EC06F93C091BA
:1003D000E802DD27C051DD4F2F9365E54B9B03C03D
:1003E0002F916F91E1CF0F931F934F9320E040E146
:1003F0005F9309B10C7003FB27F93F9350E03BE09A
:1004000039C01C7040642F77012F5F5F1EC04068A9
:1004100019B11C702F7752501FC0406409B12F775B
:100420000C70D1F15F5F00C023C0406219B12F771B
:100430001C7091F15F5F00C025C00C7010275150F7
:1004400012F45D5F0000115027952C3F19B1C8F6DA
:100450001C700127015027952C3FC8F6422749936D
:1004600009B10C7010274F73115027952C3FA8F637
:100470004695469519B11C7079F0012701502795D2
:100480002C3F98F66B5A60F3315009B1B0F600C0BA
:1004900012E01CBB00271CC03B503195C31BD04051
:1004A00012E01CBB0881033C21F10B3411F12091B7
:1004B000E5021981110F1213EDCF4A81441F09364D
:1004C00079F10D3211F0013E29F74F7009F0042F38
:1004D0000093EE023F915F914F911F910F912F91E9
:1004E0006F91CCB3C1FD5DCFDF91CF91CFBFCF91E5
:1004F00018952091EE02222369F31091EC0211234A
:1005000009F049C034300AF448C03093EC0220931B
:10051000E7021091E8023BE0311B3093E8023DC056
:100520000091EC020130BCF50AE54F7049F43091BE
:10053000150134FD33C000931501C2ECD2E032C086
:10054000433059F0443091F03091CD0234FD26C053
:100550000093CD02CEECD2E025C03091060334FDED
:100560001DC000930603C7E0D3E01CC03091D90240
:1005700034FD14C00093D902CAEDD2E013C00527A0
:1005800010E000C000000BB91AC0052710E0221FC0
:100590001DC010E021C04AE502C032ED432FC4E186
:1005A000D0E032E01AB11C605B9A0BB11AB95CE082
:1005B00020E865E320FF05270BB9279517951C3F19
:1005C000F0F66695B8F7B1F720FF05270BB9279528
:1005D00017951C3FD0F62795179517FF05270000A4
:1005E0001C3F0BB9B0F629913A9519F7037F10918A
:1005F000ED02110FC651D0400BB911F01093E50276
:1006000012E01CBB08601AB1137F402F437F54E0F7
:100610005A95F1F70BB91AB94BB95CCF9C01FB01A4
:1006200082818823B9F02A32FDE53F0769F02B3239
:100630009DE5390761F029323D4569F488E990E08C
:100640000E94240580E0089580E890E0F9CF88E6D4
:1006500090E0F6CF81E00895449A089581110AC090
:100660008BE291E0611102C08BE293E00E94A4034F
:1006700081E008958330E1F780E8611101C081E8ED
:100680000E946210F5CFCF93DF939C013A9521151C
:100690003F4168F5EC01CC27D170DC01AA27B2708C
:1006A000AC01442754709C012227387094FF11C07C
:1006B00080E1CD2B09F480E0AB2B09F08062452B63
:1006C00009F08064232B09F08068FB01DF91CF9152
:1006D000099481E0CD2B09F480E0AB2B09F0826016
:1006E000452B09F08460232B81F38860EECFDF91E6
:1006F000CF910895CF93DF93EC01805E9109089725
:1007000020F06DEC72E1209711F46AE670E1CE0101
:100710000E9443038C2FDF91CF910C94630FCF93F2
:10072000DF93EC010E94F50FCE01805E91090897DE
:1007300020F064ED72E1209711F461E770E1CE01E1
:10074000DF91CF910C944303CF93DF93EC010E9490
:100750007A03CE01DF91CF910C948F0381E008954D
:100760000C940E0308950C94B2031F93CF93DF9360
:1007700000D000D00F92CDB7DEB749835A836B8388
:100780003091C70189819A8131111DC06623B9F06A
:100790002223A9F00E94DA17182F682F89819A81E5
:1007A0000E94871769817A81812F0F900F900F9097
:1007B0000F900F90DF91CF911F910C943A050E94FA
:1007C000B317182FEFCF0E94DA1769817A81EDCF26
:1007D000FC01262F408151816281738184810C94B8
:1007E000B503CF93DF93EC0160E00E94E803BE0104
:1007F000DF91CF910C94B3030E940D1B0E94261928
:10080000811102C00E94CA190C9446070C94490732
:1008100008950E94F1120E9408042FEF84E39CE0E7
:10082000215080409040E1F700C000000C94F11A84
:100830000F931F93CF93DF93EC0161E00E94E803D5
:100840008C01BE010E94B003882329F1BE01C801BA
:100850000E944C0C8823F9F0BE01C8010E949E0C36
:100860008823C9F0BE01C8010E94C10D882399F0F8
:100870008A81882339F001158CE5180751F00F3D66
:100880001C4579F0CE01DF91CF911F910F910C940F
:10089000AE030E94090480E0DF91CF911F910F9178
:1008A00008950E94CA19F7CFDF92EF92FF920F933B
:1008B0001F93CF93DF93E82FF0E0EC51FF4FD490DC
:1008C000282F26952695269530E0F901EC57FE4F06
:1008D0000491877010E0082E02C0159507950A94C0
:1008E000E2F701701127F901EC58FE4FE490F12C6A
:1008F000082E02C0F594E7940A94E2F791E0E92209
:10090000FF24F901EC59FE4FC491D0E002C0D59507
:10091000C7958A95E2F7C170DD270115110519F019
:1009200081EE0E94630FE114F10419F086EE0E943B
:10093000630F8D2D0E946210EF2819F086EE0E9441
:10094000F50F012B19F081EE0E94F50FCD2B51F020
:100950008CE2DF91CF911F910F91FF90EF90DF908C
:100960000C946210DF91CF911F910F91FF90EF9047
:10097000DF900895EF92FF920F931F93CF93DF9331
:100980008C01F62E8AE0E82EF8018491882309F480
:1009900054C0813009F04DC0E8012196FE018491D8
:1009A000813091F42196FE0184910E9462108E01A3
:1009B0000F5F1F4F8F2D815038F3EFE9FFE0319724
:1009C000F1F700C00000F7CF823039F4E801229639
:1009D000FE0184910E94630FEACF833039F4E8016D
:1009E0002296FE0184910E94F50FE1CF8430F9F642
:1009F000E8012296FE01249190E080E0FE0131960C
:100A00002053330B2A30310548F0019780F2EFE98B
:100A1000FFE03197F1F700C00000F7CFE89EA0019A
:100A2000E99E500D1124C901840F951F2491EF01F7
:100A3000E5CF0E945404E801BACFDF91CF911F9116
:100A40000F91FF90EF90089560E00C94BA04089520
:100A50000C94270581E008950C942A05CF93C82FA4
:100A60000E9428058C2FCF910C942C0590E080E0FB
:100A70000895089524E0829FC0011124FC01E70F2E
:100A8000F11DEE0FFF1FEE0FFF1FE60FF11DEE0F22
:100A9000FF1FEC55FF4F859194910895FC01EE0FD7
:100AA000FF1FEC56FE4F859194910895CF93DF93ED
:100AB0000E943A050E946B06EC01811520E5920721
:100AC00008F042C0811530E4930708F0BDC0883EAD
:100AD000910528F5803E910508F09DC0883A910562
:100AE00088F4853A910508F08FC08130910509F4AA
:100AF00092C0009709F48FC0049708F08CC0D0E032
:100B0000C0E089C08F3B910508F489C0805C9109E1
:100B1000C03CD105A0F30E944E05EC017CC08115BC
:100B2000904250F4C11581E0D80708F074C0CD3E62
:100B3000D10528F3D0656FC0C11590E3D90708F03F
:100B400079C0CE019F70E7CF811525E5920758F552
:100B5000811534E5930708F0A6C0811542E5940796
:100B600050F4C11581E5D80708F471C0DC2FCC27FB
:100B7000C16FD06A50C0982F969596959E012370AC
:100B80003327C115D34508F07FC0C1E0D0E002C0D3
:100B9000CC0FDD1F2A95E2F720E2929FC0011124BD
:100BA000C82BD92B6FC0C11589E5D807A8F4C1158A
:100BB00098E5D90708F07CC0C11526E5D20708F0F2
:100BC0009ECF8C2F0E940207C82FD0E0DC2FCC27AD
:100BD000CC27DF71D0621FC0C1153AE5D30708F4F6
:100BE0006CC0CE0190568115904208F088CF8D2FB1
:100BF0008F710E94020790E0982F882788279F71A5
:100C00009C012C2BE901E6CFC55AD0E0CC5BDE4F2E
:100C1000C881D0E0D064CE01DF91CF910895C85A49
:100C2000D0E0CC0FDD1FCA5EDE4F0990D881C02D09
:100C3000D464F1CFCE019927D3FF03C0EC01D86C67
:100C4000EACFEC01D06CE7CFDF70D06AE4CFCE0101
:100C5000E4E096958795EA95E1F783702C2F269529
:100C60002695237090E2299F90011124382B8C2F18
:100C70008370C1E0D0E002C0CC0FDD1F8A95E2F79F
:100C8000C22BD32BDC68C7CFC1E0D0E002C0CC0FB1
:100C9000DD1F2A95E2F730E2939FC0011124C82B93
:100CA000D92BDA68B8CFD82FCC27C46FD06AB3CF8E
:100CB000DC2FCC27C06FD06AAECF8C2F8F700E94F4
:100CC000020734E0D695C7953A95E1F7CF709C2F8F
:100CD000EC01D069A0CF82389105B1F1B0F4813335
:100CE000910509F475C048F48932910509F469C089
:100CF0008A32910509F473C008958533910509F48A
:100D000059C08933910501F10895833E9105A9F1F8
:100D100038F4803E9105F9F0823E910549F108953D
:100D2000863E9105A9F1873E9105C9F1843E910562
:100D300019F52091C10221FF1FC08091C00284FDDE
:100D400014C087EE90E008952091C0022370A1F0B6
:100D500080EE90E008952091C00220FD47C03091C0
:100D6000C10230FF09C024FF44C090E080E004C00D
:100D70002091C00222FDF7CF08952091C00222FDEC
:100D80003BC03091C10230FDE3CF24FFF5CFEDCF62
:100D90002091C00223FFF0CF24FDE7CFD2CF2091D6
:100DA000C00223FD2CC03091C10231FFEECF84EE92
:100DB00090E008952091C00225FFDECF89E290E007
:100DC00008952091C00225FFD7CF85E390E00895D4
:100DD0002091C00226FFD0CF8AE290E008952091B2
:100DE000C00226FFC9CF81E390E0089589E390E037
:100DF000089583EE90E0089582EE90E0089586EEE7
:100E000090E008959091C00292FF06C0282F2871AB
:100E10002830F9F4877F846093FF06C0282F28715B
:100E20002831F1F4877E84612091C10220FF06C041
:100E3000382F38713830D9F4877F816021FF06C0A0
:100E4000282F28712831D1F4877E816194FD877E17
:100E50000895282F24712430F9F68B7F8860DCCF29
:100E6000282F2471243101F78B7E8861DDCF382F44
:100E70003171313019F78E7F8860E0CF282F2171D2
:100E8000213121F78E7E8861E1CF08950C944507CA
:100E900008950C944807E82FF0E0E854FD4F808156
:100EA0000895089580EA8A95F1F7089500C008959D
:100EB0000C945207F894E82FE295EF70F0E031A11E
:100EC000282F2F7081E090E001C0880F2A95EAF763
:100ED000982F9095932391A392A1892B82A3789424
:100EE000089580E60E945A0781E60E945A0782E62A
:100EF0000E945A0783E60E945A0780E30E945A071D
:100F000087E90E945A0786E90E945A0785E90E94EC
:100F10005A07A4EBB2E01C92E8EBF2E010821196C3
:100F20001C921197118212961C921297128213969C
:100F30001C92138284E00E941A080C94FC03BF9256
:100F4000CF92DF92EF92FF920F931F93CF93DF9395
:100F50000BE411E0C4EBD2E0C12CD12CEE24E394DD
:100F6000F12CF80181918F01F894E82FE295EF7050
:100F7000F0E021A18F70A70102C0440F551F8A9590
:100F8000E2F7CA01922F982B91A392A18095892311
:100F900082A378940E945607E7E4F1E030E020E075
:100FA000B12C4191A42FA295AF70B0E090968C9196
:100FB00090E04F7002C0959587954A95E2F780FDC5
:100FC00035C08E2D022E01C0880F0A94EAF7B82A88
:100FD0002F5F3F4F2430310521F7F8013197808191
:100FE0000E945A0753E0C5120E9458078881B8161C
:100FF000F9F0B88281E0D82AC394219684E0C8121F
:10100000B0CF2D2D44E068EB72E084EB92E00E94BB
:101010001B080E9406048D2DDF91CF911F910F9127
:10102000FF90EF90DF90CF90BF90089580E0CFCFFA
:1010300080E0E1CF0895FF920F931F93CF93DF934A
:10104000F82E092F162FD72FC42F222349F081E025
:10105000809398010E94A61A90939701809396011D
:10106000809198018823A1F0809196019091970139
:101070000E94BE1A069760F0EF2DF02FA12FBD2F12
:10108000CE0FDF2FD11DEC17FD0741F41092980110
:10109000DF91CF911F910F91FF90089581918D93D2
:1010A000F2CF80919F0180FF12C06091050185E021
:1010B000689FB0011124759567957595679560389F
:1010C0007105A8F561157105A1F1862F089581FFBD
:1010D00009C06091050185E0689FB00111247595F4
:1010E0006795EDCF6091050182FD0AC080919E0158
:1010F0008823D1F09091040160910501891728F0AF
:1011000085E0689FB0011124DACF869FB0011124D9
:1011100085E0869F9001879F300D1124692F70E034
:10112000C9010E94531ECBCF65E070E0CECF8FE7A0
:10113000089581E0089580919F0180FF0CC0609127
:10114000010170E075956795759567956115710555
:1011500049F1862F089581FF06C06091010170E07A
:1011600075956795F3CF6091010182FD0BC0909159
:101170009D019923A1F060910001809101019617D2
:1011800038F0682F70E06038710500F38FE708953C
:10119000899FC001112470E00E94531EF4CF61E0CA
:1011A00070E0D7CF81E008958D3E31F40E94510860
:1011B00081958093A30108958E3E19F40E945108F1
:1011C000F8CF8F3E31F40E94510881958093A2019F
:1011D0000895803F19F40E945108F8CF893F29F4FF
:1011E0000E949B088093A40108958A3F21F40E94E5
:1011F0009B088195F7CF8B3F31F40E949B08819526
:101200008093A50108958C3F19F40E949B08F8CFA4
:101210009FE0980F983070F4815F990B21E030E0E7
:1012200001C0220F8A95EAF78091A101822B809359
:10123000A10108958D3F31F480919F0181608093D9
:101240009F0108958E3F21F480919F018260F7CF26
:101250008F3FB9F780919F018460F1CF4091A20147
:101260008D3E59F48091A30187FF0DC01092A30118
:1012700041110BC010929E0108C08E3E81F48091F6
:10128000A30118169CF3442381F08091A40190914E
:10129000A501892B09F05AC010929D0108958F3E37
:1012A00049F447FFF0CF1092A2018091A301811170
:1012B000ECCFE0CF803F19F41416ACF3E4CF90915B
:1012C000A401893F29F41916F4F61092A401DBCF8A
:1012D0008A3F19F497FFD7CFF8CF9091A5018B3FA4
:1012E00029F497FFD0CF1092A501CDCF8C3F19F4F0
:1012F0001916CCF3C8CF9FE0980F983090F4815F17
:10130000990B21E030E0B90102C0660F771F8A9582
:10131000E2F7CB0180959091A10189238093A101EF
:10132000B2CF8D3F31F480919F018E7F80939F01DA
:10133000AACF8E3F21F480919F018D7FF7CF8F3F01
:1013400009F0A1CF80919F018B7FF0CF08950E947B
:10135000A61A9C019091A2018091A301982B21F0E3
:1013600030939C0120939B019091A4018091A50151
:10137000982B21F030939A012093990180EA91E013
:101380000C94070EEF92FF920F931F93CF93DF936E
:1013900000D000D000D0CDB7DEB786E0E0EAF1E0C3
:1013A000DE01119601900D928A95E1F7E090A2017D
:1013B000F090A3010091A4011091A5011092A20147
:1013C0001092A3011092A4011092A5018E2D8F29D5
:1013D00091F080919B0190919C010E94BE1AAC01FA
:1013E00090919E01992309F43FC0809106018417D2
:1013F000150608F447C0802F812B91F08091990148
:1014000090919A010E94BE1AAC0190919D0199237E
:1014100009F477C0809102018417150608F47FC093
:101420008091A2019091A301892B9091A401892B15
:101430009091A501892B11F00E94A70986E0FE0179
:101440003196A0EAB1E001900D928A95E1F72696D7
:101450000FB6F894DEBF0FBECDBFDF91CF911F91C5
:101460000F91FF90EF900895209107018AE0289F47
:10147000900111242417350708F0BDCF9F5F90938A
:101480009E0102C09F3FD1F7EE2059F00E94510803
:101490009FEF1E140CF491E0899F802D11248093FE
:1014A000A201FF2059F00E9451089FEF1F140CF475
:1014B00091E0899F802D11248093A3013091A20196
:1014C000332309F498CF2091A301222309F493CF69
:1014D00045EB3403C0011124992359F09093A201E4
:1014E00045EB240390011124332339F03093A301F9
:1014F00082CF81E08093A201F3CF81E08093A301AA
:101500007ACF209103018AE0289F900111242417AB
:10151000350708F085CF9F5F90939D0102C09F3FE4
:10152000D1F7002359F00E949B089FEF10160CF48E
:1015300091E0899F802D11248093A401112359F0FB
:101540000E949B089FEF11160CF491E0899F802D5B
:1015500011248093A5013091A401332309F460CFB5
:101560002091A501222309F45BCF45EB3403C00190
:101570001124992359F09093A40145EB2403900181
:101580001124332339F03093A5014ACF81E08093B1
:10159000A401F3CF81E08093A50142CF86E0E0EA89
:1015A000F1E0DF011D928A95E9F710929E011092F9
:1015B0009D0110929F0108950C942E03AF92BF924B
:1015C000CF92DF92EF92FF920F931F93CF93DF930F
:1015D000A1E6B1E02FE531E08AEAA82E81E0B82E3D
:1015E00063E671E041E050E00D91802F82958F70AD
:1015F00090E0FC01C1A10F707A01002E01C0EE0C39
:101600000A94EAF7FE2DF095CF23FC01C1A3C2A1F5
:10161000CE29C2A3E90119919E01E12FE295EF7055
:10162000F0E0F1A01F706A01012E01C0CC0C0A94F9
:10163000EAF7EC2CE094EF20E1A2F2A0FC28F2A261
:10164000EC0188A190E002C0959587950A95E2F794
:101650008170E0A1F0E002C0F595E7951A95E2F7F8
:1016600090E0E0FD92E0892BF50181935F016A171C
:101670007B0709F0B9CFDF91CF911F910F91FF90B8
:10168000EF90DF90CF90BF90AF9008956F927F92D0
:101690008F929F92AF92BF92CF92DF92EF92FF9282
:1016A0000F931F93CF93DF930AEA11E081E6C82ED0
:1016B00081E0D82E9FE5E92E91E0F92E28EA822ECE
:1016C00021E0922EC6EAD1E0712C612C34E0A32EE9
:1016D000B12CD801EC91EE0FEE0FED938D01D601F8
:1016E0002D916D01A22FA295AF70B0E090968C91D4
:1016F00090E02F7002C0959587952A95E2F781704A
:101700009927D7014D917D01A42FA295AF70B0E02C
:1017100090962C9130E04F7002C0359527954A95F0
:10172000E2F7A9014170552720FF02C042E050E0D6
:10173000842BE82BD8011197EC93EF70F0E0E15B7C
:10174000FE4F8081F4019081890F808320E08430F6
:1017500044F088818F5F888360E0872D0E94DC0AD7
:1017600021E0D4018C918D3F44F48881815088839D
:1017700061E0872D0E94DC0A21E0F4018081082EBF
:10178000000C990BB5010E94531ED4018D934D019D
:10179000622A2196B1E07B1210C0862DDF91CF9195
:1017A0001F910F91FF90EF90DF90CF90BF90AF907F
:1017B0009F908F907F906F9008957724739489CF36
:1017C0000F931F93CF93DF93C42FD22FFC018281FD
:1017D0008823C9F04093AE010E94A61A9093AD01F0
:1017E0008093AC0180E28C0F883008F050C0C77045
:1017F00081E001C0880FCA95EAF7DF91CF911F9170
:101800000F910C946A101091AE01141335C08091A1
:10181000AC019091AD010E94BE1A883C910560F523
:10182000C0E2CD0F1D17B9F080E2810F883040F47F
:10183000177081E001C0880F1A95EAF70E947110B5
:10184000C83048F481E09D2F977001C0880F9A95A9
:10185000EAF70E946A10802F0E946210C830B8F424
:10186000D77081E001C0880FDA95EAF7DF91CF9158
:101870001F910F910C94711080E28C0F883038F416
:10188000C77081E001C0880FCA95EAF7EFCFDF91FA
:10189000CF911F910F9108950F939C01CB01243F8D
:1018A0004CE5340759F1A8F4293DFCE53F0701F167
:1018B0002A3D4CE53407D1F1283D3C4591F406E240
:1018C00021EE41EE68ED7CE50E94E00B80E00F9197
:1018D0000895263FFCE53F07E9F0B0F0273F3C457F
:1018E000F9F0FC018281882339F11092AE01EFCF2B
:1018F00007E225EE45EE69ED7CE5E6CF06E221EE56
:1019000040EE64EF7CE5E0CF07E225EE44EE65EFC4
:101910007CE5DACF06E221EE42EE66EF7CE5D4CF3D
:1019200007E225EE46EE67EF7CE5CECF08E221E048
:1019300045EE6AED7CE5C8CF81E0C9CFCF93DF9358
:10194000EC01FB018281882309F419C1C230FCE556
:10195000DF07C0F1C6319CE5D90730F09E012B5F4F
:101960003C452930310570F50E9439199093C10228
:101970008093C002C031ECE5DE0709F4CFC008F067
:101980005BC0C8308CE5D80709F4B6C088F5C43010
:10199000ECE5DE0709F4A8C0C0F4C2308CE5D80736
:1019A00009F49CC08091C0028260C330DC4509F418
:1019B00098C08091C0029091C1020E9447190E9474
:1019C000F11280E0DF91CF9108958091C002806193
:1019D000C630ECE5DE0709F484C08091C00288605F
:1019E000C730DC4508F47DC08091C002806279C0B8
:1019F000CC308CE5D80709F489C070F48091C0021E
:101A00008C60CA30ECE5DE0709F46BC008F478C0DE
:101A10008091C0028E7F65C0CE308CE5D80709F476
:101A200079C08091C0028B7FCF30DC4508F459C06B
:101A30008091C0028F7E55C0CC3FECE5DE0709F4F3
:101A400057C030F5C3318CE5D80709F46FC078F47E
:101A5000C131ECE5DE0709F465C0C231DC4509F0AF
:101A6000A8CF0E94F1128091C0028F773AC0C53191
:101A70008CE5D80709F462C008F476C08091C102F1
:101A80008160CB3FDC4509F094CF8093C10291CFB8
:101A9000C115FDE5DF0709F44DC088F48091C1024E
:101AA0008D7FCE3F9CE5D90781F38091C1028E7F67
:101AB000CF3FDC4550F38091C1028360E6CFC23056
:101AC000FDE5DF0709F459C008F444C080E0C330E5
:101AD000DD4509F06ECF0E94CC196BCF8091C0021A
:101AE00081608093C00265CF8091C0028460F9CF8D
:101AF0008091C1028260C9CF8091C0028064F1CF21
:101B00000E94F1128091C0028068EBCF8091C002E8
:101B10008D7FE7CF8091C002877FE3CF8091C002A5
:101B20008F7DDFCF8091C0028F7BDBCF8091C002A1
:101B3000837FD7CF8091C1028C7FA7CF8091C002D5
:101B400082FB992790F921E0922790FB82F990FB84
:101B500083F9C7CF8091C102982F909591708E7FA5
:101B6000892B90FB81F991CF0E94F1129091C002D4
:101B7000892F97FB87F98058B4CF81E0ACCF81E003
:101B800021CFCF93DF93EB0186319C4511F50E9465
:101B90006F189A81992399F08A7A91E009F490E07C
:101BA0009093AF01811109C089E20E944A180E94F6
:101BB000BB1880E0DF91CF91089585E3F6CF809147
:101BC000AF01811104C089E20E945118F0CF85E372
:101BD000FBCF81E0EFCF9093B5018093B4010895DE
:101BE000E091B401F091B501309721F00190F081BE
:101BF000E02D099480E00895E091B401F091B501E1
:101C0000309721F00280F381E02D09940895E0914E
:101C1000B401F091B501309739F022E0DC012C934A
:101C20000480F581E02D099408952091B20130914E
:101C3000B3012817390771F09093B3018093B20173
:101C4000E091B401F091B501309721F00680F78161
:101C5000E02D099408952091B0013091B101281729
:101C6000390771F09093B1018093B001E091B40114
:101C7000F091B501309721F00084F185E02D0994B1
:101C800008950E94B21A6093C3017093C4018093B7
:101C9000C5019093C6016093BF017093C00180930A
:101CA000C1019093C20108950E94B21A6093C301CA
:101CB0007093C4018093C5019093C6016093BB01EA
:101CC0007093BC018093BD019093BE010895089567
:101CD00008950C94670E0C942C038EE199E10E94F8
:101CE000061B0E94680E0C94690E81E008950C9406
:101CF000750E089508950E949D1A0E9471070E9412
:101D0000211B0E94DE0A0C946B0EAF92BF92CF9201
:101D1000DF92EF92FF920F931F93CF93DF93CDB794
:101D2000DEB72A970FB6F894DEBF0FBECDBF0E9474
:101D3000790E0E947A0E0E949F0781110E94410E27
:101D400087EBA82E81E0B82E10E000E0C02E802F97
:101D50000E944B07E82EF501F1905F01F81609F497
:101D600053C080911F0281FD0E9451078F2D8E2547
:101D7000D12CFF24F394982F9F2109F440C00E9496
:101D8000770E882399F0DE82CF82EF2081E009F47C
:101D900080E088870E94A61A8160782F9A878987B9
:101DA0004E815F8168858A850E942C0FF801E95475
:101DB000FE4F8081F826F0820E94460B81110E941E
:101DC000540E0E94C2090E94F00D9091B60189172D
:101DD00091F10E94F00D8093B6012A960FB6F89407
:101DE000DEBF0FBECDBFDF91CF911F910F91FF904E
:101DF000EF90DF90CF90BF90AF900C942E05D394CE
:101E0000FF0CF4E0DF12B7CF0F5F1F4F0430110556
:101E100009F09CCF8FEF89838A831B820E94A61AC8
:101E20008160782F9D838C8349815A816B818D815C
:101E30000E942C0FC1CF2A960FB6F894DEBF0FBEBA
:101E4000CDBFDF91CF911F910F91FF90EF90DF9069
:101E5000CF90BF90AF900895DF92EF92FF920F93D3
:101E60001F93CF93DF93CDB7DEB72B970FB6F894C0
:101E7000DEBF0FBECDBF7A878B87F42E052F162FBE
:101E8000E72ED82E61110E948F181E821D827E2D92
:101E9000EC82DD824F2D502F612F8D2D9E812B9650
:101EA0000FB6F894DEBF0FBECDBFDF91CF911F916B
:101EB0000F91FF90EF90DF900C946715FC018081EB
:101EC00091810C941C18CF93C82F882309F48BC0E0
:101ED0008238C1F40E94F00D81FD85C089E30E9423
:101EE0004A180E94BB182FEF81EE94E021508040E9
:101EF0009040E1F700C0000089E30E945118CF91A3
:101F00000C94BB188338A1F40E94F00D80FD6BC0C7
:101F100083E50E944A180E94BB182FEF81EE94E0DF
:101F2000215080409040E1F700C0000083E5E5CFFC
:101F30008438A1F40E94F00D82FD55C087E40E9410
:101F40004A180E94BB182FEF81EE94E02150804088
:101F50009040E1F700C0000087E4CFCF8CEF8C0FFA
:101F6000813A90F46C2F80910801909109010E94B0
:101F7000E319882329F08C2F0E9451180E94BB1866
:101F80008C2F0E944A18BBCF80E28C0F883048F417
:101F9000C77081E001C0880FCA95EAF70E947218E5
:101FA000AECFEBE5EC0FE33040F4F0E0EF56FE4F40
:101FB000808190E0CF910C94150EE8E5EC0FE731AD
:101FC00050F4F0E0EE0FFF1FED59FE4F808191813C
:101FD000CF910C942B0ECD3E30F08C2F0E94D40864
:101FE000CF910C94A709CF910895882309F452C08A
:101FF000823871F40E94F00D81FF4CC089E30E9489
:102000004A180E94BB1889E30E9451180C94BB180F
:10201000833859F40E94F00D80FF3CC083E50E9494
:102020004A180E94BB1883E5EFCF843859F40E9408
:10203000F00D82FF2FC087E40E944A180E94BB184F
:1020400087E4E2CF9CEF980F913AF0F290E2980F7C
:10205000983050F4877091E001C0990F8A95EAF7A3
:10206000892F0E947818D2CF9BE5980F933020F4E7
:1020700090E080E00C94150E98E5980F973120F4CD
:1020800090E080E00C942B0E8D3E20F00E942E09F3
:102090000C94A70908951F93CF93DF93182FEB019A
:1020A0000E94630F209731F4812FDF91CF911F9110
:1020B0000C94F50F8FE99FE00197F1F700C0000045
:1020C0002197F0CF70E060E0893311F460E570E0B3
:1020D0000C944B10882321F00E9472180C94BB18AA
:1020E0000895882321F00E9478180C94BB18089555
:1020F000BF92CF92DF92EF92FF920F931F93CF93F5
:10210000DF936C01D62FC72FFC0112810581029548
:102110000F700E946818E82E8823A1F0E12E112389
:1021200089F08C2F807F803429F080E28D0FE12CA4
:10213000883040F082E00E9406190E94681891E001
:10214000E82EE926BC2EB2949FE0B922EB2DF0E0F8
:10215000EB53F14E0C94671E0C2F0F70C07F11F0E3
:102160000295007F1123A9F0002359F080E28D0F22
:10217000883010F0D11109C0802F0E9472180E947F
:10218000BB188D2F0E94630F14C0802F0E948218ED
:10219000F6CF8D2F0E94F50F002359F080E28D0FAE
:1021A000883010F0D1112CC0802F0E9478180E9426
:1021B000BB182B2D2850330B2430310520F40E94FE
:1021C000F00D0E942E05EE2009F49EC10E946418B5
:1021D00080FD9AC1F60112820E945E180E94EB16E1
:1021E000C6010E94A5120E945E18DF91CF911F9137
:1021F0000F91FF90EF90DF90CF90BF900C940C1751
:10220000802F0E948818D3CFFC2FFF70FF2EC07F35
:10221000C03219F0F29480EFF822DD2369F0D1305A
:1022200049F1112391F1002351F1F601858180FFDD
:10223000A8CF8F70858323C0112381F0011106C0C0
:102240000E94A2188F290E946A10B3CF0130C1F7F3
:102250000E94A2188F290E94A818ABCF011106C0B6
:102260000E94B1188F2D0E947110A3CF013009F484
:10227000A0CFF6CF112329F0063008F09ACF8F2D8A
:10228000E2CF053008F095CFEDCF002359F3D933D5
:1022900049F4FFEF27EE33E0F15020403040E1F702
:1022A00000C000008D2F0E94F50F83CF8C2F8695E4
:1022B0008695837069F0813009F07BCF8D2F9C2F3C
:1022C0009370111102C090E080E00E942B0E71CF3C
:1022D0008D2F9C2F9370111102C090E080E00E941E
:1022E000150E67CF8D2F112329F00E94D4080E946C
:1022F000A7095FCF0E942E09FACF8C2F837009F0B7
:1023000041C0111156CF4D2F429546954770440F4D
:10231000440F0D2F0F7010E030E020E0042E04C0B9
:10232000000F111F221F331F0A94D2F760E070E0E4
:10233000CB01D4FF0FC06FE070E080E090E004C0FC
:10234000660F771F881F991F4A95D2F76095709581
:1023500080959095C695C695C370602B712B822B86
:10236000932BC23049F058F4C13019F00E949D16E9
:1023700020CF0E948B161DCF0E94AF161ACF0E944D
:10238000891617CF8695112311F08C2F8170882321
:1023900009F40FCF4D2F429546954770440F440FD7
:1023A0000D2F0F7010E030E020E0042E04C0000F6D
:1023B000111F221F331F0A94D2F760E070E0CB0197
:1023C000D4FF0FC06FE070E080E090E004C0660FC3
:1023D000771F881F991F4A95D2F760957095809551
:1023E0009095C695C695C370602B712B822B932B4D
:1023F000C23049F058F4C13019F00E946217D9CEAA
:102400000E945017D6CE0E947417D3CE0E94C516D4
:10241000D0CECF70112329F08C2F0E94EB168D2F78
:1024200012CF8D2F0E9471108C2F0E940C17C1CEDD
:10243000D23F89F160F4D03FC9F0D13F29F1112397
:1024400009F442C001119DCE8C2F8F7121C0D33F62
:1024500039F1D43FA1F7112369F1CF718C2F0E947C
:10246000EB1663E08C2F0E94F118A3CE112341F0EC
:10247000053008F09ECE8C2F8F710E942F1799CEB9
:10248000063008F096CEF7CF8C2F8F71112369F2AA
:102490000E94EB168ECE8C2F8F711123C9F3C5CFFE
:1024A000112329F08C2F8F710E94D61682CE0E94A4
:1024B000D1167FCE81E00E940619023008F479CE51
:1024C00082E00E94061975CE002359F0D93309F035
:1024D000E9CE8FEF97EEE3E081509040E040E1F7E6
:1024E000DFCE8C2F8F71A1CF4C2F4F706D2FC60177
:1024F0000E9436050E9401165CCE4C2F4F706D2F46
:10250000C6010E94390555CEDF91CF911F910F91E1
:10251000FF90EF90DF90CF90BF9008950F931F939F
:10252000CF93DF93EC01688179818A810E9426181C
:102530008C010E9486170E948816B801CE01DF9197
:10254000CF911F910F910C947810CF93DF93EC01F2
:102550008B819C81892B29F08881998189238F3FE8
:1025600059F4DF91CF910895CE010E948E12CE01D1
:10257000DF91CF910C94F103CE010E9418048111D8
:10258000F3CF0E946818882361F38A81882349F376
:1025900082E0DF91CF910C940619882321F00E94EC
:1025A00082180C94BB180895882321F00E94881883
:1025B0000C94BB18089590E080E00E94150E90E006
:1025C00080E00E942B0E0E948F180E949F180E948C
:1025D000BB180E94CE0A0C94A7090E9458180C94AC
:1025E000DB120E947F180C94ED12E92FE295EF7038
:1025F000E250EE3070F4F0E0EB52F14E0C94671EB6
:10260000803F19F020F4883E20F481E00895843F53
:10261000E1F380E00895883EC0F3813FD1F7F5CF24
:1026200093FB882780F908950E941C180C94F512DA
:10263000CF93DF9300D000D00F92CDB7DEB70F90CD
:102640000F900F900F900F90DF91CF910895CF933F
:10265000DF9300D000D000D0CDB7DEB726960FB6FE
:10266000F894DEBF0FBECDBFDF91CF9108951F93C9
:10267000CF93DF93C091C80116E08091C9018C13FC
:1026800004C0DF91CF911F910895D0E01C9FF0010D
:102690001D9FF00D1124E653FE4F40815181628150
:1026A0007381848195810E9427132196C770E5CF9D
:1026B0004091FA015091FB016091FC017091FD0184
:1026C0008091FE019091FF010C9427131F93CF93EB
:1026D000DF938091FF01807FA9F48091FC01882322
:1026E00089F08091C801C091C9016091FA0170918F
:1026F000FB01A091FD01B091FE01D62FD72316E07A
:10270000C81304C0DF91CF911F91089590E01097F6
:1027100011F0DF3F19F401968770F2CF189F9001F6
:10272000199F300D1124F901E653FE4F41814713E3
:10273000F2CF40814613EFCF42814111ECCF43816C
:1027400054814A1B5B0B483C510528F78091FF01DF
:102750008F7080618093FF01F901E153FE4F80810A
:102760008F70806180838AEF91E00E94A512DF91D3
:10277000CF911F910C943713AF92BF92CF92DF92FB
:10278000EF92FF920F931F93CF93DF93CDB7DEB7F6
:1027900061970FB6F894DEBF0FBECDBF8C0185E008
:1027A000F801DE011D9601900D928A95E1F7F8017E
:1027B00040815181E2808AEFC82E81E0D82E60915D
:1027C000FD017091FE016115710509F461C19091DF
:1027D000FA012091FB01892F82238F3F09F458C110
:1027E000A380B480F090FC01F501E61BF70BFF20FD
:1027F00009F4FCC08091FF01382F307FE83CF105DF
:1028000008F0B2C0311179C0FE2C251323C09413F7
:1028100021C0E1101FC08F7080618093FF010E9472
:102820005813C6010E94A5128091FF01F80185830B
:102830008F2D61960FB6F894DEBF0FBECDBFDF912E
:10284000CF911F910F91FF90EF90DF90CF90BF90AD
:10285000AF900895AB2829F0842F85238F3F09F08E
:1028600033C180E0F82FF170DF2E80FF3CC08091F3
:10287000C8012091C90136E0821315C04D875E87DB
:102880008D859E850E941C18292F22952F7022303D
:10289000F0F0243018F59F70F1F0F8019581907FE9
:1028A000D1F4D12C1EC090E0389FF001399FF00D7B
:1028B0001124E653FE4F6181651306C060816413E5
:1028C00003C062816E110FC001968770D5CF9F70D3
:1028D00011F0882331F3805E883018F3C8010E941C
:1028E000A512FD2CA5CFEE2009F4A2CF8091FF0107
:1028F00081608093FF01F12C9BCF251306C09413B8
:1029000004C0F801EE2009F48DC04D875E878D85E7
:102910009E850E941413882319F1EE2009F18091FD
:10292000FF01803270F02091FA013091FB0138876D
:102930002F831986BB86AA868C87CE0107960E94B4
:10294000A51286E0F801AAEFB1E001900D928A95F8
:10295000E1F70E9466130E945813FF24F39468CF96
:10296000C8010E94A512F9CF311113C07A2DB98A7E
:10297000A88A6E2D89890E9418138AEF91E00E941F
:10298000A51286E0F60111928A95E9F70E94581384
:10299000B2CF25130FC094130DC0E1100BC0F80186
:1029A0008583C8010E94A51286E0F60111928A95DE
:1029B000E9F73ECF4D875E878D859E850E94141373
:1029C000882371F2EE2061F28091FF01803208F4D9
:1029D000B8CF2091FA013091FB013A8329831B8201
:1029E000BD82AC828E83CE010196A9CFE83CF10571
:1029F00008F041C0FE2CEE2009F4B2CF25132AC006
:102A0000941328C08091FF0180FD1BC0982F907FF8
:102A1000C1F0F8018583903F31F0982F907F905F4F
:102A20008F70892B8583C8010E94A51286E0F8016A
:102A3000AAEFB1E001900D928A95E1F70E94581338
:102A4000F7CE86E0F801AAEFB1E001900D928A95E9
:102A5000E1F7EECE4D875E878D859E850E9414132B
:102A600081116FCF8091FF0181608093FF01C801C8
:102A70000E94A512DDCE7A2DB98AA88A6E2D898989
:102A80000E94181386E0F60111928A95E9F7D6CFD5
:102A9000EE2009F465CF4D875E878D859E850E9467
:102AA0001413F82E882309F45BCF86E0F801AAEF0F
:102AB000B1E001900D928A95E1F78AEF91E00E94D2
:102AC0005E0F0E946613BACF81E08E25CBCE1F9396
:102AD000CF93DF93CDB7DEB72C970FB6F894DEBF58
:102AE0000FBECDBF4F83588769877A878B879C87B6
:102AF000CE0107960E94BC13882369F08A859B85C6
:102B0000892B39F04F815885842F85238F3F09F019
:102B100071C016E05FC086E0FE013796DE011196B7
:102B200001900D928A95E1F78A859B85892B89F31F
:102B30008F81988589238F3F61F32091C90130E00F
:102B4000C9010196877099274091C8014817190655
:102B500071F40E94F1121092C9011092C80186E02E
:102B6000EAEFF1E0DF011D928A95E9F7D2CF96E016
:102B7000929FD001939FB00D1124A653BE4FFE012A
:102B8000319601900D929A95E1F78093C9010E94C8
:102B90003713BFCF819FC001112486539E4F0E94DF
:102BA000BC138823E9F0E091C8011E9FF0011124B5
:102BB000E653FE4F4081518162817381848195810A
:102BC0000E9427138091C80190E001968770992791
:102BD0008093C8018091C8019091C9018913DACF0F
:102BE0002C960FB6F894DEBF0FBECDBFDF91CF910C
:102BF0001F91089569857A858B859C850E9427138E
:102C000088CFEF92FF920F931F93CF93DF938C01A6
:102C1000892B81F0F12CEE24E394E8012196F80150
:102C20008491843770F4843008F05FC08130B1F053
:102C30008230A1F1DF91CF911F910F91FF90EF9022
:102C40000895853709F44CC008F43DC09CE7980FFF
:102C5000903780F78F770E94F50F49C00E5F1F4FA6
:102C6000FE01849190E2980F983060F48770FE2DF9
:102C700001C0FF0F8A95EAF78F2F0E9492180E94D9
:102C8000BB1802C00E94630F8F2D815030F2EFE914
:102C9000FFE03197F1F700C00000F7CF0E5F1F4F44
:102CA000FE01849190E2980F983050F48770FE2DC9
:102CB00001C0FF0F8A95EAF78F2F0E949818DFCF87
:102CC0000E94F50FE1CF0E5F1F4FFE01C491C1506E
:102CD000D8F28FE99FE00197F1F700C00000F7CF2D
:102CE0000E5F1F4FFE01F490CFCF0E94630F8E0145
:102CF000CBCF08950C9479160E947A1660930E0239
:102D000070930F0280931002909311020C94DB12C7
:102D100008950C947C160F931F9300910E0210914E
:102D20000F022091100230911102602B712B822B27
:102D3000932B1F910F910C947C160F931F9300916E
:102D40000E0210910F0220911002309111026023A7
:102D50007123822393231F910F910C947C160F9360
:102D60001F9300910E0210910F02209110023091DA
:102D7000110260277127822793271F910F910C94CE
:102D80007C160C9479160C94C1160E94C31660939D
:102D90000A0270930B0280930C0290930D020C9424
:102DA000DB1260E070E0CB010C94C5160F931F930B
:102DB00041E050E060E070E08A019B0104C0000F38
:102DC000111F221F331F8A95D2F7C901B8011F9125
:102DD0000F910C94C5160F931F9341E050E060E0F3
:102DE00070E004C0440F551F661F771F8A95D2F705
:102DF00080910A0290910B02A0910C02B0910D02F9
:102E00008A019B01082B192B2A2B3B2BC901B801E6
:102E10001F910F910C94C5160F931F9341E050E042
:102E200060E070E004C0440F551F661F771F8A954D
:102E3000D2F7CB01BA01609570958095909500917D
:102E40000A0210910B0220910C0230910D026023B6
:102E50007123822393231F910F910C94C5160F9316
:102E60001F9341E050E060E070E004C0440F551F44
:102E7000661F771F8A95D2F780910A0290910B0204
:102E8000A0910C02B0910D028A019B01082719271D
:102E90002A273B27C901B8011F910F910C94C51631
:102EA0000F931F9300910A0210910B0220910C02C4
:102EB00030910D02602B712B822B932B1F910F9160
:102EC0000C94C5160F931F9300910A0210910B02E8
:102ED00020910C0230910D026023712382239323F1
:102EE0001F910F910C94C5160F931F9300910A0226
:102EF00010910B0220910C0230910D026027712776
:102F0000822793271F910F910C94C5160895990F4E
:102F1000990F890F982F977041E001C0440F9A953F
:102F2000EAF786958695869595E0899FF0011124AC
:102F3000E050FE4F30E020E070E05191DF0111974A
:102F4000CB01022E02C0969587950A94E2F7817014
:102F500081958527842385278C932F5F3F4F2530CC
:102F6000310559F70895990F990F890F982F977088
:102F700086958695869525E0829FF0011124E05084
:102F8000FE4F50E040E080E0219130E0092E02C089
:102F9000369527950A94E2F721703327042E01C055
:102FA000220F0A94EAF7822B4F5F5F4F453051059D
:102FB00059F70895BF92CF92DF92EF92FF920F934D
:102FC0001F93CF93DF938C01C0900A02D0900B0225
:102FD000E0900C02F0900D0280910E0290910F0291
:102FE000A0911002B0911102C82AD92AEA2AFB2A1C
:102FF000CFE1D0E0BC2ED701C6010C2E04C0B6959F
:10300000A795979587950A94D2F780FD0EC02197D2
:1030100088F7B12C8B2DDF91CF911F910F91FF90ED
:10302000EF90DF90CF90BF900895B8018C2F0E9451
:103030005605019761F3EECFCF93DF93EC010E9429
:10304000DA17BE01DF91CF910C9456051F93CF93F1
:10305000DF93EB019091C701992331F0CB01DF9110
:10306000CF911F910C941C18882379F0CB010E94FA
:10307000DA17182F682FCE010E948717BE01812F03
:10308000DF91CF911F910C945605CB010E94B3178D
:10309000182FF4CF682F80910801909109010C94AA
:1030A000191A682F80910801909109010C941B1A3C
:1030B00080910801909109010C941D1A80911202CF
:1030C000859585958595089580911202877008955C
:1030D00090911202977081E009F480E00895809148
:1030E0001E02089590911E02892B80931E0208955E
:1030F000809590911E02982390931E02089510923D
:103100001E02089590911D02892B80931D0208953F
:10311000809590911D02982390931D02089510921E
:103120001D02089590911C02892B80931C02089522
:10313000809590911C02982390931C020895109200
:103140001C02089580911302089508950C94A51807
:1031500090911302981721F0809313020C94A618F3
:10316000089580911302882329F01092130280E0C1
:103170000C94A6180895E0910801F091090180913E
:103180001E028083E0910801F091090180819091F5
:103190001D02892B8083E0910801F0910901808153
:1031A00090911C02892B808390911302992381F0C6
:1031B000E0910801F09109018081892B8083809141
:1031C0000801909109010E94D11981110E94B11842
:1031D00080910801909109010C94FC0D08950C94C4
:1031E000EE1898E0899F90011124622B60931202DF
:1031F0000E94EB16809112028595859585950C9419
:10320000EF181092120280E00C94EF1890911202C5
:103210008095892380931202282F277071F4282F1C
:10322000082E000C330B9217130639F085958595FF
:1032300085950E940C170C940119089580E008955B
:103240006FEF7FEF90E080E00C94AD1E90E080E0A7
:103250000E94891E21E08B3E9E4F09F020E0822FC4
:10326000089582E090E00C94811E83E090E00C943D
:10327000811ECF9384E090E00E94811EC82F81E2DE
:1032800090E00E94811E982F8C2FCF910895CF93AC
:10329000C92F682F84E090E00E948F1E6C2F81E27E
:1032A00090E0CF910C948F1EAB01BC018FE090E0B9
:1032B0000C94A11EAB01BC0183E190E00C94A11E13
:1032C00060E070E0CB010C945A1960E070E0CB0133
:1032D0000E9454190C9460196BEE7EEF90E080E030
:1032E0000E94AD1E60E082E090E00E948F1E60E0D0
:1032F00083E090E00E948F1E10920E0210920F0247
:10330000109210021092110260E084E090E00E949E
:103310008F1E60E081E290E00E948F1E60E085E0F9
:1033200090E00E948F1E60E086E090E00E948F1E79
:103330006FEF87E090E00E948F1E40E050E0BA01FE
:1033400088E090E00E94A11E60E08DE090E00E9485
:103350008F1E40E050E0BA0188E190E00E94A11E7B
:1033600060E087E190E00E948F1E40E050E0BA01EB
:103370008CE190E00E94A11E60E080E290E00E945B
:103380008F1E40E050E0BA0188E190E00E94A11E4B
:103390000C9465190C946C19682F8EE090E00C94D5
:1033A0008F1E9C012E5F3F4FAC01485F5F4F80E056
:1033B0002417350709F40895F90191919F01992384
:1033C000B9F38F5FF5CF662349F0FC01329608967A
:1033D0002191261729F0E817F907D1F780E0089521
:1033E00081E008959C01FC0132969FEF80E04191BD
:1033F000461751F09F3F19F4411101C0982F8F5F7C
:103400008630A9F79F3F09F40895290F311D97FDD4
:103410003A95F90162830895FC013296089621914C
:10342000261303C0DF0111971C92E817F907B9F7BB
:1034300008950C94F2190C940C1A029626E0FC01E3
:1034400011922A95E9F70895089508950C94251A84
:1034500080912102882349F10E94261A80E00E946F
:103460002E051092200288E190E020E40FB6F89437
:10347000A895809360000FBE2093600083B7817F82
:10348000846083BF83B7816083BF7894889583B756
:103490008E7F83BF0FB6F894A895809160008861F5
:1034A00080936000109260000FBE08950895CF933E
:1034B0000E94241A0E949F070E94561AC0E08C2F77
:1034C0000E944B07811105C0CF5FC430C1F7CF9177
:1034D000089581E0FCCF08950C946B1A0E94F112BC
:1034E0000E94F00D0E942E050C946C1A1F921FB6BC
:1034F0001F9211248F939F93AF93BF9380912002CB
:10350000811113C08091BC029091BD02A091BE02B6
:10351000B091BF024196A11DB11D8093BC02909352
:10352000BD02A093BE02B093BF02BF91AF919F9125
:103530008F911F901FBE1F90189582E084BD93E06D
:1035400095BD9AEF97BD80936E0008952FB7F894BC
:103550008091BC029091BD02A091BE02B091BF02C9
:103560002FBF08952FB7F8946091BC027091BD02EF
:103570008091BE029091BF022FBF08959C014FB76A
:10358000F8948091BC029091BD02A091BE02B091CE
:10359000BF024FBF821B930B089578941F921FB6F2
:1035A0001F9211248F939F93AF93BF938091BC027E
:1035B0009091BD02A091BE02B091BF020196A11DE3
:1035C000B11D8093BC029093BD02A093BE02B09344
:1035D000BF02BF91AF919F918F911F901FBE1F900F
:1035E000189588E198E00FB6F894A895809360004C
:1035F0000FBE90936000A895F894D8E0CEEF28E332
:10360000299320E0299314BEFFCF0895909395014C
:103610008093940108950C9420190E949F078FE3D2
:103620009CE90197F1F700C000000E949F0780E02D
:103630000E944B0780FF04C00E940B1B0C94F11AE0
:1036400008950E942619811102C00E94CA190E9481
:10365000311980931F020E9439199093C1028093FF
:10366000C0020E943519682F70E090E080E00E944F
:10367000891660910A0270910B0280910C02909160
:103680000D020C94C3160E94A61AEC0180E890E08B
:103690000FB6F89480936100909361000FBE0E9472
:1036A0006D0E0E94381E539A80E0815009F047C089
:1036B000539878940E947B0E0E945C1C0E94EB0D34
:1036C000FFEF20E732E0F15020403040E1F700C04A
:1036D000000001E01CE08091E9028823C1F1109212
:1036E000E9020E94A61AEC0180912102882321F0B0
:1036F000109221020E946E1A809121028823A9F162
:103700000E94281A0E94571A882329F3F8949AB124
:103710005B9A892F8C608AB98BB181278BB98FE72F
:10372000E8E3F1E08150E040F040E1F700C0000044
:103730008BB181278BB99AB95B987894CCCFA89537
:10374000EFE9FFE03197F1F700C00000AECF8091C4
:1037500021028111D1CFCE010E94BE1A069760F2DC
:10376000009321020E94281AC7CF0E94481D809111
:10377000EF02882329F08091CD0284FD0E94850EFE
:103780000E94031C0E94790E0E947A0EA4CF8091A1
:10379000B3020895CF93DF9300D00F92CDB7DEB779
:1037A00090912402981307C02091220230912302A5
:1037B0002617370791F080932402709323026093B9
:1037C000220289837B836A838091060384FF05C07C
:1037D00063E0CE0101960E94441D0F900F900F9060
:1037E000DF91CF910895BC0184E00C94CA1BBC0109
:1037F00083E00C94CA1B2091060324FF03C066E0FB
:103800000C94441D0895CF93DF93CAE0D0E08091DB
:10381000CD0284FF1AC08091300290913102981736
:1038200089F028E0829FC001112468E08E5C9D4FE2
:103830000E94401D8091300290E001968F70992780
:1038400080933002DF91CF9108950E94481D8FE947
:103850009FE00197F1F700C000002197C1F6F2CF79
:10386000CF93DF93EC01A0913102B0E0CD0101963E
:103870008F70992720913002281779F093E0AA0FD2
:10388000BB1F9A95E1F7AE5CBD4F98E0FE01019039
:103890000D929A95E1F7809331020E94481D0E9493
:1038A000031C88E0FE01A8E2B2E001900D928A9527
:1038B000E1F7DF91CF9108958AE091E00895FC014E
:1038C000808180768032F1F48181813061F484815D
:1038D0009581892BB9F488E292E09093EB02809372
:1038E000EA0288E00895823041F482EB92E09093FE
:1038F000EB028093EA0281E008958A3029F4838103
:103900008093B20280E008958930E1F7828193814B
:103910008115924069F484819581892B49F481E075
:1039200080932702868197819093260280932502B7
:103930008FEF0895FC018091250290912602892B3A
:1039400061F080912702813041F490819093B3021D
:10395000109226021092250208958FEF089508957F
:10396000FC019381933059F130F49130C1F09230E1
:10397000F1F080E00895913209F440C09232C9F725
:1039800084819581009709F44AC0019791F78BE1F2
:1039900092E09093EB028093EA028BE708958FEC1C
:1039A00091E09093EB028093EA0282E1089584E92A
:1039B00091E09093EB028093EA028BE30895828179
:1039C0008130A1F0882351F0823099F681EE91E0A8
:1039D0009093EB028093EA028EE1089587E192E0F2
:1039E0009093EB028093EA0284E0089581E092E0F4
:1039F0009093EB028093EA0284E108958281882308
:103A000031F0813009F0B5CF8FEB91E002C086EA4A
:103A100091E09093EB028093EA0289E0089586E9B1
:103A200092E09093EB028093EA0280E408951F9362
:103A3000CF93DF93E82F792F162FEA01888184FF37
:103A40001CC0298188E828272983CE010296DC0141
:103A50002E2F372F512F5E0FF90121912D939F01AA
:103A6000452F4E1B1416C4F3612F0E94C9011C5F21
:103A70001883DF91CF911F9108958AE58883E5CF60
:103A80004DEC52E00C94171D46E053E00C94171DCA
:103A9000CF93DF936091EC02635067FD12C0809179
:103AA000E802CCE0D0E0C81BD109C051DD4F8091C5
:103AB000E702803108F054C0CE010E94AF1C109282
:103AC000EC028091150184FF3EC0809114018F3F6C
:103AD000D1F1C82F893008F0C8E0982F9C1B909333
:103AE00014019091C20228E892279093C202882381
:103AF000E9F08091EA029091EB022091E60226FF24
:103B0000AEC0FC012C2FA3ECB2E034913D93319672
:103B10002150D9F79C012F5F3F4F8FEF8C0F820F01
:103B2000932F911D9093EB028093EA026C2F83EC0C
:103B300092E00E94C901CC5FCC3019F08FEF8093E6
:103B40001401C093150184E199B19C7031F4815046
:103B5000D9F71092ED021092E502DF91CF9108950E
:103B60008D3209F069C0683009F0A9CF83EC8093E9
:103B7000C2028AE5809315011092E6028881807660
:103B800071F0CE010E945F1C8F3FC1F4988197FDB8
:103B90008E8190E89093E6028093140190CF2A8161
:103BA0001092CB029981911111C01092CC022BEC92
:103BB00032E082E03093EB022093EA029F81911180
:103BC000EBCF9E81981740F7892FE6CF953029F4E7
:103BD0002093ED022BEC32E0EDCF963099F49B81EF
:103BE000913021F4CE010E94B01C08C09230D1F374
:103BF0009330C1F39132B1F39232A1F390E49093F8
:103C0000E602C2CF983089F0993019F42093EF0280
:103C1000E1CF9A3071F09B30E9F69BE49093CE02AD
:103C2000909307039093DA02D5CF2FEE32E081E034
:103C3000C1CF2BEC32E0FBCF8091E60287FF3FCF74
:103C4000CE010E949A1C8F3F21F48EE180931501D2
:103C500036CF882309F433CF1092140130CFDC0122
:103C60002C2FE3ECF2E03D9131932150E1F752CF5C
:103C7000CF93DF93E9E6F0E0808188608083E99A62
:103C8000CDECD2E08BE48983A6E0B3E011968C936F
:103C90001197E9EDF2E081838AE588838C93808334
:103CA000DF91CF91089597FB072E16F4009407D06B
:103CB00077FD09D00E946D1E07FC05D03EF490955B
:103CC00081959F4F0895709561957F4F0895EE0FF0
:103CD000FF1F0590F491E02D0994AA1BBB1B51E135
:103CE00007C0AA1FBB1FA617B70710F0A61BB70B6C
:103CF000881F991F5A95A9F780959095BC01CD0111
:103D00000895F999FECF92BD81BDF89A992780B5A3
:103D10000895A8E1B0E042E050E00C94B51E262FD3
:103D2000F999FECF92BD81BDF89A019700B40216B1
:103D300039F01FBA20BD0FB6F894FA9AF99A0FBE5F
:103D400008950396272F0E94901E0E948F1E252FF4
:103D50000E94901E242F0C94901E0196272F0E94E3
:103D6000901E0C948F1EDC01CB01FC01F999FECF53
:103D700006C0F2BDE1BDF89A319600B40D924150F3
:103D80005040B8F70895F894FFCFAC10AC10041170
:103D9000041156117211D910D9107D11091218127F
:103DA00018127412D910D9107D12001300130913C0
:103DB00009130B130913091309130013001310132C
:063DC000091309131013A2
:103DC6002808641E140A321E1402C71B301CFB1B73
:103DD600F71BF31BFF5AE200E900EA00B500B60044
:103DE600B700CD008301CC008A0192019401210223
:103DF600230224022502260227022A02B300B40067
:103E06006F007000818283309796956061626300CF
:103E1600FF0100010000FFFF0000010001FF00900C
:103E2600319132E200E900EA00B500B600B700CDF4
:103E3600008301CC008A019201940121022302240D
:103E4600022502260227022A02B300B4006F007080
:043E560000818283E2
:00000001FF
